S013000053697A65436F6D706172652E73726563AF
S11300000C94A2000C94C3000C94C3000C94C30081
S11300100C94C3000C94C3000C94C3000C94C30050
S11300200C94C3000C94C3000C94C3000C94C30040
S11300300C94C3000C94C3000C94C3000C94C30030
S11300400C94C3000C94C3000C94C3000C94C30020
S11300500C94C3000C94C3000C94C3000C94C30010
S11300600C94C3000C94C3000C94C3000C94C30000
S11300700C94C3000C94C3000C94C3000C94C300F0
S11300800C94C3000C94C3000C94C3000C94C300E0
S11300900C94C3000C94C3000C94C3000C94C300D0
S11300A00C94C3000C94C3000C94C3000C94C300C0
S11300B00C94C3000C94C3000C94C3000C94C300B0
S11300C00C94C3000C94C3000C94C3000C94C300A0
S11300D00C94C3000C94C3000C94C3000C94C30090
S11300E00C94C3000C94C3000C94C3000C94C30080
S11300F00C94C3000C94C3000C94C3000C94C30070
S11301000C94C3000C94C3000C94C3000C94C3005F
S11301100C94C3000C94C3000C94C3000C94C3004F
S11301200C94C3000C94C3000C94C3000C94C3003F
S11301300C94C3000C94C3000C94C3000C94C3002F
S11301400C94C30011241FBECFEFCDBFDFE3DEBF8D
S113015000E00CBF10E2A0E0B0E2E4E7FCE000E065
S11301600BBF02C007900D92AA31B107D9F720E264
S1130170AAE1B0E201C01D92AA3AB207E1F70E94D7
S1130180C5000C9438060C940000C0E0D0E220EDC9
S11301903FE049E450E46091A0207091A120809157
S11301A0A2209091A3200E94AB01162F072FF82EB6
S11301B0E92E862F902FAF2DBE2D8093A0209093F3
S11301C0A120A093A220B093A32026EB33EF4DE20D
S11301D050E4612F702F8F2D9E2D0E94DF024B0162
S11301E05C0123E939EA42E05EE360919C2070916E
S11301F09D2080919E2090919F200E94DF029B0170
S1130200AC01C501B4010E94AA01262F372F462F45
S1130210572F682F792F40939C2050939D206093F3
S11302209E2070939F209F938F933F932F93EF92E1
S1130230FF920F931F93DF93CF930E947003C0909C
S11302409C20D0909D20E0909E20F0909F208DB720
S11302509EB70A968DBF9EBF23EC33E54BEF51E466
S1130260C701B6010E94DA02181664F540919A207B
S113027050919B209A012F5F3F4F20939A203093F7
S11302809B206091A0207091A1208091A220909148
S1130290A3209A01220F331F220F331FF901E65EB8
S11302A0FF4D6083718382839383A70196010E942B
S11302B0170260939C2070939D2080939E209093BE
S11302C09F203CC020919A2030919B20C901019627
S11302D080939A2090939B20220F331F220F331F69
S11302E0F901E65EFF4DC082D182E282F382809002
S11302F0A0209090A120A090A220B090A320880FCD
S1130300991F880F991FFC01E65EFF4DA50194011A
S113031060817181828193810E94DA02181674F4DB
S1130320A5019401C701B6010E9417026093A020A1
S11303307093A1208093A2209093A32080919A206F
S113034090919B20809708F422CF10929A201092CB
S11303509B201DCF5058BB27AA270E94C2010C9492
S1130360A0020E94920238F00E94990220F039F40F
S11303709F3F19F426F40C948F020EF4E095E7FBEA
S11303800C948902E92F0E94B10258F3BA1762074C
S113039073078407950720F079F4A6F50C94D3022B
S11303A00EF4E0950B2EBA2FA02D0B01B90190018C
S11303B00C01CA01A0011124FF27591B99F0593FD0
S11303C050F4503E68F11A16F040A22F232F342F18
S11303D04427585FF3CF469537952795A795F04066
S11303E05395C9F77EF41F16BA0B620B730B840B7B
S11303F0BAF09150A1F0FF0FBB1F661F771F881F33
S1130400C2F70EC0BA0F621F731F841F48F487958A
S113041077956795B795F7959E3F08F0B0CF93957C
S1130420880F08F09927EE0F9795879508950E94F5
S11304302B020C94A0020E94990258F00E9492028E
S113044040F029F45F3F29F00C94890251110C9477
S1130450D4020C948F020E94B10268F39923B1F381
S1130460552391F3951B550BBB27AA2762177307D6
S1130470840738F09F5F5F4F220F331F441FAA1F6A
S1130480A9F335D00E2E3AF0E0E832D09150504026
S1130490E695001CCAF72BD0FE2F29D0660F771FD4
S11304A0881FBB1F261737074807AB07B0E809F0BA
S11304B0BB0B802DBF01FF2793585F4F3AF09E3F3F
S11304C0510578F00C9489020C94D4025F3FE4F354
S11304D0983ED4F3869577956795B795F7959F5F82
S11304E0C9F7880F911D9695879597F90895E1E0CE
S11304F0660F771F881FBB1F621773078407BA072D
S113050020F0621B730B840BBA0BEE1F88F7E09587
S1130510089597F99F6780E870E060E008959FEF81
S113052080EC089500240A94161617061806090686
S1130530089500240A941216130614060506089555
S1130540092E0394000C11F4882352F0BB0F40F4DD
S1130550BF2B11F460FF04C06F5F7F4F8F4F9F4F1D
S1130560089557FD9058440F551F59F05F3F71F09F
S11305704795880F97FB991F61F09F3F79F0879506
S11305800895121613061406551FF2CF4695F1DF8F
S113059008C0161617061806991FF1CF869571051F
S11305A0610508940895E894BB2766277727CB0153
S11305B097F908950E944C0308F48FEF08950E9460
S11305C0F2020C94A0020E94920238F00E94990256
S11305D020F0952311F00C9489020C948F021124BD
S11305E00C94D4020E94B10270F3959FC1F3950F4D
S11305F050E0551F629FF001729FBB27F00DB11DA3
S1130600639FAA27F00DB11DAA1F649F6627B00D32
S1130610A11D661F829F2227B00DA11D621F739F1B
S1130620B00DA11D621F839FA00D611D221F749F29
S11306303327A00D611D231F849F600D211D822F70
S1130640762F6A2F11249F5750409AF0F1F0882397
S11306504AF0EE0FFF1FBB1F661F771F881F9150C4
S11306605040A9F79E3F510580F00C9489020C94E8
S1130670D4025F3FE4F3983ED4F38695779567956B
S1130680B795F795E7959F5FC1F7FE2B880F911DEE
S11306909695879597F90895990F0008550FAA0B19
S11306A0E0E8FEEF16161706E807F907C0F0121681
S11306B01306E407F50798F0621B730B840B950B84
S11306C039F40A2661F0232B242B252B21F40895D9
S11306D00A2609F4A140A6958FEF811D811D089576
S11306E0CF93DF93CDB7DEB7AE014A5F5F4FFA0118
S11306F061917191AF018091A6209091A7200E94F1
S11307008403DF91CF9108952F923F924F925F928D
S11307106F927F928F929F92AF92BF92CF92DF920D
S1130720EF92FF920F931F93CF93DF93CDB7DEB772
S11307302B97CDBFDEBF6C017B018A01FC011682C1
S11307401782838181FFCCC1CE0101963C01F60161
S11307509381F70193FD859193FF81917F01882314
S113076009F4BAC1853239F493FD859193FF8191DF
S11307707F01853229F4B60190E00E949E05E7CFFF
S1130780912C212C312CFFE1F315D8F08B3279F028
S113079038F4803279F08332A1F4232D20611DC016
S11307A08D3261F0803369F4232D216016C0832DCE
S11307B08260382EE32DE4603E2E2AC0F32DF860CB
S11307C01DC037FC2DC020ED280F2A3040F08E329A
S11307D0B9F436FC81C1232D2064322E19C036FEB3
S11307E006C08AE0989E200D1124922E11C0EAE0E2
S11307F02E9E200D1124222EF32DF0623F2E08C0D0
S11308008C3621F4832D8068382E02C0883641F45A
S1130810F70193FD859193FF81917F018111B3CFFE
S1130820982F9F7D9554933028F40C5F1F4F9FE3BE
S113083099830DC0833631F0833771F0833509F025
S113084059C021C0F801808189830E5F1F4F88241D
S11308508394912C530113C02801F2E04F0E511CD4
S1130860F801A080B18036FE03C0692D70E002C09B
S11308706FEF7FEFC5010E9493054C018201F32DB8
S1130880FF773F2E16C0280122E0420E511CF801CA
S1130890A080B18036FE03C0692D70E002C06FEF06
S11308A07FEFC5010E9488054C01F32DF0683F2EAF
S11308B0820133FC1BC0822D90E088169906B0F4A7
S11308C0B60180E290E00E949E052A94F4CFF501DF
S11308D037FC859137FE81915F01B60190E00E945B
S11308E09E0521102A9421E0821A91088114910412
S11308F071F7E8C0843611F0893641F5F80137FE06
S113090007C060817181828193810C5F1F4F08C091
S113091060817181072E000C880B990B0E5F1F4FAD
S1130920F32DFF763F2E97FF09C090958095709523
S113093061957F4F8F4F9F4FF0683F2E2AE030E044
S1130940A3010E94DA05882E861845C0853731F444
S1130950232D2F7EB22E2AE030E025C0932D997FDF
S1130960B92E8F36C1F018F4883579F0B5C08037C8
S113097019F0883721F0B0C0E92FE061BE2EB4FE33
S11309800DC0FB2DF460BF2E09C034FE0AC0292F10
S11309902660B22E06C028E030E005C020E130E039
S11309A002C020E132E0F801B7FE07C06081718126
S11309B0828193810C5F1F4F06C06081718180E04A
S11309C090E00E5F1F4FA3010E94DA05882E86185F
S11309D0FB2DFF773F2E36FE0DC0232D2E7FA22E3A
S11309E0891458F434FE0BC032FC09C0832D8E7E6A
S11309F0A82E05C0B82CA32C03C0B82C01C0B92C58
S1130A00A4FE0FC0FE01E80DF11D8081803321F4A6
S1130A109A2D997EA92E09C0A2FE06C0B394B39460
S1130A2004C08A2D867809F0B394A3FC11C0A0FEFB
S1130A3006C0B21488F4280C922C9B180EC0B21471
S1130A4060F4B60180E290E00E949E05B394F7CF73
S1130A50B21418F42B1802C0982C212CA4FE10C038
S1130A60B60180E390E00E949E05A2FE17C0A1FC9F
S1130A7003C088E790E002C088E590E0B6010CC0AE
S1130A808A2D867859F0A1FE02C08BE201C080E273
S1130A90A7FC8DE2B60190E00E949E05891438F40B
S1130AA0B60180E390E00E949E059A94F7CF8A9461
S1130AB0F301E80DF11D8081B60190E00E949E05CE
S1130AC08110F5CF222009F442CEB60180E290E0F5
S1130AD00E949E052A94F6CFF6018681978102C072
S1130AE08FEF9FEF2B96CDBFDEBFDF91CF911F918C
S1130AF00F91FF90EF90DF90CF90BF90AF909F90B9
S1130B008F907F906F905F904F903F902F900895BB
S1130B10FC010590615070400110D8F780959095C4
S1130B208E0F9F1F0895FC016150704001900110C9
S1130B30D8F7809590958E0F9F1F08950F931F935C
S1130B40CF93DF93FB01238121FD03C08FEF9FEF40
S1130B502CC022FF16C0468157812481358142175B
S1130B60530744F4A081B1819D012F5F3F4F20833F
S1130B7031838C93268137812F5F3F4F26833783C0
S1130B8014C08B01EC01FB010084F185E02D199563
S1130B90892BE1F6D80116968D919C9117970196B1
S1130BA016968D939C931797CE01DF91CF911F9149
S1130BB00F910895FA01AA27283051F1203181F1CB
S1130BC0E8946F936E7F6E5F7F4F8F4F9F4FAF4F51
S1130BD0B1E03ED0B4E03CD0670F781F891F9A1F64
S1130BE0A11D680F791F8A1F911DA11D6A0F711D18
S1130BF0811D911DA11D20D009F468943F912AE024
S1130C00269F11243019305D3193DEF6CF0108950B
S1130C10462F4770405D4193B3E00FD0C9F7F6CF3C
S1130C20462F4F70405D4A3318F0495D31FD405204
S1130C30419302D0A9F7EACFB4E0A695979587959A
S1130C4077956795BA95C9F7009761057105089579
S1130C509B01AC010A2E0694579547953795279525
S1130C60BA95C9F7620F731F841F951FA01D0895BD
S1070C70F894FFCF22
S1130C746D79466C6F6174313A2025662C6D794622
S10D0C846C6F6174323A202566009B
S9030000FC
